:100000000C94E6020C940E030C940E030C940E0355
:100010000C940E030C940E030C940E030C940E031C
:100020000C940E030C940E030C940E030C940E030C
:100030000C940E030C940E030C940E030C940E03FC
:100040000C942F080C940E030C94D00A0C94020B01
:100050000C940E030C940E030C940E030C940E03DC
:100060000C940E030C940E0300000000003E5B4F46
:100070005B3E3E6B4F6B3E1C3E7C3E1C183C7E3C08
:10008000181C577D571C1C5E7F5E1C00183C180016
:10009000FFE7C3E7FF0018241800FFE7DBE7FF30A6
:1000A000483A060E2629792926407F050507407F14
:1000B00005253F5A3CE73C5A7F3E1C1C08081C1C87
:1000C0003E7F14227F22145F5F005F5F06097F017D
:1000D0007F006689956A606060606094A2FFA29468
:1000E00008047E040810207E201008082A1C080836
:1000F0001C2A08081E101010100C1E0C1E0C303884
:100100003E3830060E3E0E06000000000000005F84
:1001100000000007000700147F147F14242A7F2AA0
:100120001223130864623649562050000807030062
:10013000001C2241000041221C002A1C7F1C2A08AE
:10014000083E080800807030000808080808000011
:1001500060600020100804023E5149453E00427F85
:10016000400072494949462141494D331814127FD4
:100170001027454545393C4A494931412111090774
:100180003649494936464949291E000014000000F5
:1001900040340000000814224114141414140041C7
:1001A00022140802015909063E415D594E7C121184
:1001B000127C7F494949363E414141227F414141BC
:1001C0003E7F494949417F090909013E4141517337
:1001D0007F0808087F00417F41002040413F017FA8
:1001E000081422417F404040407F021C027F7F0470
:1001F00008107F3E4141413E7F090909063E4151B9
:10020000215E7F09192946264949493203017F01A8
:10021000033F4040403F1F2040201F3F4038403FA9
:10022000631408146303047804036159494D4300BF
:100230007F4141410204081020004141417F0402F6
:10024000010204404040404000030708002054548D
:1002500078407F284444383844444428384444286B
:100260007F385454541800087E090218A4A49C78BE
:100270007F0804047800447D40002040403D007F1A
:100280001028440000417F40007C047804787C08FA
:100290000404783844444438FC18242418182424CE
:1002A00018FC7C08040408485454542404043F44B3
:1002B000243C4040207C1C2040201C3C4030403CE2
:1002C00044281028444C9090907C4464544C440042
:1002D00008364100000077000000413608000201A6
:1002E0000204023C2623263C1EA1A161123A404092
:1002F000207A38545455592155557941225454780F
:1003000042215554784020545579400C1E527212A7
:100310003955555559395454545939555454580030
:1003200000457C410002457D420001457C407D1234
:1003300011127DF0282528F07C5455450020545496
:100340007C547C0A097F4932494949323A44444441
:100350003A324A4848303A4141217A3A424020787C
:10036000009DA0A07D3D4242423D3D4040403D3C7D
:1003700024FF2424487E4943662B2FFC2F2BFF09A2
:1003800029F620C0887E0903205454794100004496
:100390007D413048484A32384040227A007A0A0A81
:1003A000727D0D19317D2629292F282629292926F4
:1003B00030484D4020380808080808080808382F39
:1003C00010C8ACBA2F102834FA00007B00000814C3
:1003D0002A142222142A14085500550055AA55AA99
:1003E00055AAFF55FF55FF000000FF00101010FF39
:1003F00000141414FF001010FF00FF1010F010F094
:10040000141414FC001414F700FF0000FF00FF1484
:1004100014F404FC141417101F10101F101F1414D0
:10042000141F00101010F0000000001F101010101A
:100430001F10101010F010000000FF10101010100E
:1004400010101010FF10000000FF140000FF00FF4C
:1004500000001F10170000FC04F4141417101714E8
:1004600014F404F40000FF00F7141414141414140A
:10047000F700F7141414171410101F101F1414147D
:10048000F4141010F010F000001F101F0000001FE7
:1004900014000000FC140000F010F01010FF10FF1A
:1004A000141414FF141010101F00000000F010FFAF
:1004B000FFFFFFFFF0F0F0F0F0FFFFFF0000000093
:1004C00000FFFF0F0F0F0F0F3844443844FC4A4A17
:1004D0004A347E02020606027E027E0263554941CC
:1004E000633844443C04407E201E2006027E020203
:1004F00099A5E7A5991C2A492A1C4C7201724C3017
:100500004A4D4D303048784830BC625A463D3E49ED
:100510004949007E0101017E2A2A2A2A2A44445F91
:10052000444440514A444040444A51400000FF0185
:1005300003E080FF000008086B6B08361236243693
:10054000060F090F060000181800000010100030F8
:1005500040FF0101001F01011E00191D1712003C80
:100560003C3C3C0000000000FEFDFBF7EFDFBF7FDE
:100570000102040810204080000000080002010071
:10058000000304070000000000000000010204084E
:1005900010204080010204081020010204081020ED
:1005A0000404040404040404020202020202030319
:1005B0000303030300000000250028002B000000B7
:1005C0000000240027002A002703280B11241FBE47
:1005D000CFEFD8E0DEBFCDBF11E0A0E0B1E0E8E2B0
:1005E000F8E102C005900D92A835B107D9F726E0D1
:1005F000A8E5B1E001C01D92A830B207E1F715E00F
:10060000CCECD5E004C02297FE010E94020CC83C4D
:10061000D107C9F70E946C0B0C94120C0C940000CB
:1006200026E040E855E260E070E08BE695E00E944D
:100630006E0A60E071E08BE695E00E94B70B88E5FA
:1006400091E00E94530788E591E00C94A2072AE00C
:100650004BE06DE088E591E00C94D406CF93DF93F6
:10066000C0E0D0E020E030E041E050E0BE0188E5AD
:1006700091E00E94620620E030E042E050E0BE01DE
:1006800088E591E00E94620620E030E043E050E01F
:10069000BE0188E591E00E94620620E030E044E07F
:1006A00050E0BE0188E591E00E94620688E591E095
:1006B0000E94C70764E170E080E090E00E949C081F
:1006C0002196C03981E0D80769F668EE73E080E0D2
:1006D00090E00E949C0888E591E0DF91CF910C9416
:1006E000A2072F923F924F925F926F927F928F92CA
:1006F0009F92AF92BF92CF92DF92EF92FF920F93B1
:100700001F93CF93DF9300D000D0CDB7DEB74C015D
:100710007C836B836A015901C8018701AC014C19C4
:100720005D0957FF03C051954195510995016B81B2
:100730007C81261B370B37FF03C03195219531098A
:1007400022242394312C2417350714F0212C312C2A
:100750002114310459F03A2D2B2D5C01832F922F57
:100760003B812C81DC82CB82C32ED22EAB81BC811B
:10077000AA16BB065CF43C2D2D2D6C01832F922F05
:100780003B812C81BC82AB82A32EB22E2501EB8152
:10079000FC814E1A5F0A3C016C187D0877FE03C08D
:1007A000719461947108720157FE03C0FFEFEF1A54
:1007B000FF0AF594E794C816D9062CF421E030E03E
:1007C0003A83298324C06FEF7FEF7A8369831FC048
:1007D000D401ED91FC910480F581E02D9801211464
:1007E0003104D9F04B815C81B601C4010995E6184A
:1007F000F708F7FE06C0E981FA81CE0EDF1EE40C91
:10080000F51C2B813C812F5F3F4F3C832B836B81F9
:100810007C81A616B706E4F604C0A6016B817C8134
:10082000E4CF0F900F900F900F90DF91CF911F9119
:100830000F91FF90EF90DF90CF90BF90AF909F907F
:100840008F907F906F905F904F903F902F90089582
:100850006F927F928F929F92AF92BF92CF92DF92D0
:10086000EF92FF920F931F93CF93DF93EC015B0105
:100870006A0139014801E881F9810284F385E02D9C
:1008800087010995E881F981A601480D591D41505C
:1008900051090284F385E02D9301B501CE0109953C
:1008A000E881F9810084F185E02D9401A601B5016C
:1008B000CE010995E881F981B501660D771D61507A
:1008C00071090084F185E02D9401A601CE010995FE
:1008D000DF91CF911F910F91FF90EF90DF90CF901C
:1008E000BF90AF909F908F907F906F900895EF9200
:1008F000FF920F931F93DC01ED91FC91240F351FA4
:10090000215031090680F781E02D780189019B0192
:1009100009951F910F91FF90EF900895EF92FF922C
:100920000F931F93DC01ED91FC91260F371F21508F
:1009300031090680F781E02D78018A0109951F9120
:100940000F91FF90EF9008956F927F928F929F92F8
:10095000AF92BF92CF92DF92EF92FF920F931F93CD
:10096000CF93DF935C014A0169013801EB01C60EA8
:10097000D71ECC15DD0574F4D501ED91FC910084F2
:10098000F185E02D87019301A401BE01C501099500
:100990002196EFCFDF91CF911F910F91FF90EF90B4
:1009A000DF90CF90BF90AF909F908F907F906F908F
:1009B0000895EF92FF920F931F93DC01ED91FC914C
:1009C00011971A960D911C911B9718962D913C9199
:1009D00019970684F785E02D7B0140E050E060E048
:1009E00070E009951F910F91FF90EF900895089581
:1009F000FC01138212828BE091E0918380837583E6
:100A00006483578346837187608753874287158A3B
:100A1000158614861786168621E0248B8FEF9FEFAC
:100A2000938B828B918B808B268B178A08952F92C4
:100A30003F924F925F926F927F928F929F92AF926E
:100A4000BF92CF92DF92EF92FF920F931F93CF93BB
:100A5000DF93CDB7DEB72C970FB6F894DEBF0FBE8D
:100A6000CDBF9C878B873A0118870F83FA86E9866A
:100A7000CD82DC0118968D919C91199768177907A2
:100A80000CF09EC01A968D919C911B9748175907A0
:100A90000CF096C08C2C912CCB01B6E0CB9E800D37
:100AA000911D1124181619060CF08AC0C401E3E048
:100AB000880F991FEA95E1F7840F951F18161906FC
:100AC0000CF07EC0AB85BC8557968C91811103C01C
:100AD000203B08F02F5F5B016B011C8258E6452E1E
:100AE00050E0552E461A570AB5E02B9F400C511C7A
:100AF0001124EC81E53031F0F201EA0DFB1D249167
:100B00002B8301C01B827A82698213011E823B8182
:100B100030FF13C0AB85BC85ED91FC91BD81B13038
:100B200031F40480F581E02D2F81388519C00684C9
:100B3000F785E02DEF80F8841EC0E985FA852F81C6
:100B40003885E217F307F9F0AB85BC85ED91FC9190
:100B5000BD81B13059F40480F581E02D29853A85B5
:100B6000A101B5018B859C8509950DC00684F7858B
:100B7000E02DE984FA848401940149815A81B60107
:100B80008B859C850995EB81E695EB83FE81FF5F64
:100B9000FE8329813A81280D391D3A8329833FEF4D
:100BA000231A330AF83009F0B2CF4C814F5F4C83DF
:100BB000C80CD91C8FEFA81AB80A463009F099CF93
:100BC0002C960FB6F894DEBF0FBECDBFDF91CF914C
:100BD0001F910F91FF90EF90DF90CF90BF90AF905B
:100BE0009F908F907F906F905F904F903F902F904D
:100BF0000895CF92EF92FF920F931F93CF93DF93BD
:100C0000EC01262F6A3049F42C898E859F8538E0C7
:100C1000239F800D911D112432C06D30A1F1EA880F
:100C2000FB88088919894E855F856C857D85CC8810
:100C30000E9417052C89422F50E08C859D8536E057
:100C4000239F800D911D11249D878C872E8922233F
:100C5000D1F06AEF64039001659F300D112468851F
:100C60007985260F371F281739076CF4F3E0440FF6
:100C7000551FFA95E1F78E859F85840F951F9F87F5
:100C80008E871D861C8681E090E0DF91CF911F91B9
:100C90000F91FF90EF90CF900895FC016370658BEA
:100CA0008481958126813781613039F0633029F064
:100CB000918780873387228708953187208793879C
:100CC00082870895FC0177FD6EC080859185681745
:100CD00079070CF068C057FD66C082859385481778
:100CE00059070CF060C08589823061F08330C9F00B
:100CF0008130F1F4848195810197841B950BAB01C0
:100D0000BC0116C0848195810197DC01A61BB70B3D
:100D1000BD01868197810197FC01E41BF50BAF01B2
:100D200007C0868197810197861B970BBA01AC019A
:100D3000FB01E770FF27232BD9F0E059FA4FE4912C
:100D400020E931E0429FC001439F900D529F900DDA
:100D50001124860F971F97FD0796DC0193E0B59548
:100D6000A7959A95E1F7A658BE4F8C918E2B1AC085
:100D7000E859FA4FE49120E931E0429FC001439FD6
:100D8000900D529F900D1124860F971F97FD079687
:100D9000DC0183E0B595A7958A95E1F7A658BE4F8B
:100DA0008C918E238C930895EF92FF920F931F9353
:100DB000CF93DF931F92CDB7DEB77C01062F142FA0
:100DC00044E150E060E971E029830E94F804E3E225
:100DD000F1E0D7011196FC93EE9359960C93599735
:100DE0005A961C935A97298158962C9361E0822F2A
:100DF0000E94610960E0F701818D0E94610961E054
:100E0000D7015A968C910E94610961E0F701808DAB
:100E10000E94280961E0D70159968C910E94280907
:100E200061E0F701828D0E942809D70159968C91C3
:100E300090E0FC01E056FA4FE491F0E0EE0FFF1F66
:100E4000EC54FA4F25913491F701368F258FFC0130
:100E5000E457FA4F8491D70191968C9391975A96C3
:100E60008C9190E0FC01E056FA4FE491F0E0EE0F37
:100E7000FF1FEC54FA4F25913491F701348F238FE3
:100E8000FC01E457FA4F8491D70190968C93909788
:100E900080E45F968C930F90DF91CF911F910F911B
:100EA000FF90EF90089562E00C944D06FC0198E0ED
:100EB000A58DB68D2C9181A1809582238C93A38DD5
:100EC000B48D80A12C9167FF03C0282B2C9303C005
:100ED000809582238C93A58DB68D8C9121A1822B38
:100EE0008C93660F915021F7A58DB68D9C9181A1B1
:100EF000809589238C930895FC0198E0A58DB68D8B
:100F00002C9181A1809582238C93A38DB48D80A197
:100F10002C9160FF03C0282B2C9303C08095822363
:100F20008C93A58DB68D8C9121A1822B8C93669587
:100F3000915021F7A58DB68D9C9181A18095892333
:100F40008C930895CF93DF93EC0148EE53E06FEF5D
:100F500070E08AE791E00E940B0C61E0888D0E94AE
:100F600061096F8D6062CE010E94560760E0CE017C
:100F70000E947C078F8D882311F080E001C080E4FF
:100F80008F8F60E0888DDF91CF910C9461098F92F3
:100F90009F92AF92BF92CF92DF92EF92FF920F9308
:100FA0001F93CF93DF93EC0161E0888D0E9461096C
:100FB0006F8D6068CE010E9456078F8D882311F0D7
:100FC00080E001C080E48F8F61E0CE010E947C0749
:100FD0005AE7A52E51E0B52ECC24C394D12CE12C98
:100FE000F12C72E3872E912CF50161915F01CE0106
:100FF0000E947C07FFEFEF1AFF0AC701B4010E94AD
:10100000CA0B8B010F5F1F4F0C151D0561F060E0CF
:10101000CE010E947C070531110530F4602FCE010E
:101020000E947C0701C0860188EEE81683E0F8067E
:1010300011F06801D9CF60E0CE010E947C0760E02A
:10104000888DDF91CF911F910F91FF90EF90DF90EE
:10105000CF90BF90AF909F908F900C9461091F929A
:101060000F920FB60F9211242F933F938F939F935C
:10107000AF93BF938091630590916405A09165053E
:10108000B09166053091620523E0230F2D3720F4DF
:101090000196A11DB11D05C026E8230F0296A11DD2
:1010A000B11D209362058093630590936405A0931E
:1010B0006505B09366058091670590916805A091DC
:1010C0006905B0916A050196A11DB11D8093670560
:1010D00090936805A0936905B0936A05BF91AF919D
:1010E0009F918F913F912F910F900FBE0F901F9066
:1010F00018953FB7F8948091670590916805A09185
:101100006905B0916A0526B5A89B05C02F3F19F067
:101110000196A11DB11D3FBF6627782F892F9A2FF9
:10112000620F711D811D911D42E0660F771F881FA0
:10113000991F4A95D1F70895CF92DF92EF92FF92CF
:10114000CF93DF936B017C010E947908EB01C114FE
:10115000D104E104F10489F00E94C90B0E947908CE
:101160006C1B7D0B683E734090F381E0C81AD10878
:10117000E108F108C851DC4FEACFDF91CF91FF9031
:10118000EF90DF90CF900895789484B5826084BD0D
:1011900084B5816084BD85B5826085BD85B581607B
:1011A00085BDEEE6F0E0808181608083E1E8F0E0DB
:1011B0001082808182608083808181608083E0E80A
:1011C000F0E0808181608083E1EBF0E080818460E9
:1011D0008083E0EBF0E0808181608083EAE7F0E0EB
:1011E000808184608083808182608083808181604F
:1011F00080838081806880831092C100089583304D
:1012000081F028F4813099F08230A1F00895873080
:10121000A9F08830B9F08430D1F4809180008F7DBE
:1012200003C0809180008F7780938000089584B5FB
:101230008F7702C084B58F7D84BD08958091B00002
:101240008F7703C08091B0008F7D8093B0000895A8
:10125000CF93DF9390E0FC01E457FA4F2491FC0117
:10126000E056FA4F8491882349F190E0880F991F46
:10127000FC01E254FA4FA591B4918C549A4FFC01B1
:10128000C591D4919FB7611108C0F8948C912095B5
:1012900082238C93888182230AC0623051F4F894AF
:1012A0008C91322F309583238C938881822B888375
:1012B00004C0F8948C91822B8C939FBFDF91CF91C7
:1012C00008950F931F93CF93DF931F92CDB7DEB78F
:1012D000282F30E0F901E858FA4F8491F901E457DA
:1012E000FA4F1491F901E056FA4F04910023C9F026
:1012F000882321F069830E94FF086981E02FF0E0D4
:10130000EE0FFF1FEC54FA4FA591B4919FB7F894DC
:101310008C91611103C01095812301C0812B8C93A6
:101320009FBF0F90DF91CF911F910F9108950E9461
:10133000060CFC01818D228D90E0805C9F4F821B0A
:1013400091098F7399270895FC01918D828D9817CB
:1013500031F0828DE80FF11D858D90E008958FEFBB
:101360009FEF0895FC01918D828D981761F0828D19
:10137000DF01A80FB11D5D968C91928D9F5F9F73C9
:10138000928F90E008958FEF9FEF0895FC01848D78
:10139000DF01A80FB11DA35ABF4F2C91848D90E09F
:1013A00001968F739927848FA689B7892C93A0897A
:1013B000B1898C9180648C93938D848D981306C031
:1013C0000288F389E02D80818F7D80830895CF93FB
:1013D000DF93EC01888D8823C9F0EA89FB8980813D
:1013E00085FD05C0A889B9898C9186FD0FC00FB60F
:1013F00007FCF5CF808185FFF2CFA889B9898C9150
:1014000085FFEDCFCE010E94C609E7CFDF91CF91D6
:101410000895CF92DF92FF920F931F93CF93DF93A4
:101420001F92CDB7DEB76C0181E0D60158968C9340
:1014300058975B969C915B975C968C915C97981300
:1014400007C05096ED91FC915197808185FD2EC08B
:10145000F601038D10E00F5F1F4F0F731127F02E61
:10146000F601848DF81211C00FB607FCF9CFD60132
:101470005096ED91FC915197808185FFF1CFC60187
:1014800069830E94C6096981EBCF838DE80FF11D46
:10149000E35AFF4F6083D6015B960C935B9752969D
:1014A000ED91FC915397808180620CC0D6015696D5
:1014B000ED91FC91579760835096ED91FC91519777
:1014C00080818064808381E090E00F90DF91CF91F4
:1014D0001F910F91FF90DF90CF900895BF92CF9210
:1014E000DF92EF92FF92CF93DF93EC016A017B01D1
:1014F000B22EE889F98982E08083411581EE580790
:1015000061057105A1F060E079E08DE390E0A7014D
:1015100096010E94DE0B215031094109510956956F
:10152000479537952795211580E1380798F0E88988
:10153000F989108260E874E88EE190E0A7019601D5
:101540000E94DE0B215031094109510956954795FA
:1015500037952795EC85FD853083EE85FF852083C3
:10156000188EEC89FD89B082EA89FB8980818061CF
:101570008083EA89FB89808188608083EA89FB898E
:10158000808180688083EA89FB8980818F7D808368
:10159000DF91CF91FF90EF90DF90CF90BF900895B3
:1015A0001F920F920FB60F9211242F938F939F9338
:1015B000EF93FF93E0917B05F0917C058081E091B2
:1015C0008105F091820582FD12C090818091840591
:1015D0008F5F8F7320918505821751F0E09184050C
:1015E000F0E0E559FA4F958F8093840501C0808122
:1015F000FF91EF919F918F912F910F900FBE0F90C0
:101600001F9018951F920F920FB60F9211242F93CF
:101610003F934F935F936F937F938F939F93AF937A
:10162000BF93EF93FF938BE695E00E94C609FF916D
:10163000EF91BF91AF919F918F917F916F915F914A
:101640004F913F912F910F900FBE0F901F901895C3
:1016500010926E0510926D0588EE93E0A0E0B0E068
:1016600080936F0590937005A0937105B0937205F8
:101670008BE391E090936C0580936B0585EC90E093
:10168000909378058093770584EC90E090937A05A9
:101690008093790580EC90E090937C0580937B05A6
:1016A00081EC90E090937E0580937D0582EC90E044
:1016B0009093800580937F0586EC90E0909382055F
:1016C00080938105109284051092850510928605FD
:1016D00010928705089508950E94C4080E946B0B1C
:1016E0000E9410030E942E03FDCFCF92DF92EF9253
:1016F000FF920F931F93CF93DF936C017A01EB015D
:10170000E60EF71E00E010E0CE15DF0561F06991EE
:10171000D601ED91FC910190F081E02DC601099573
:10172000080F191FF1CFC801DF91CF911F910F91C1
:10173000FF90EF90DF90CF9008956115710581F0D3
:10174000DB010D900020E9F7AD0141505109461B26
:10175000570BDC01ED91FC910280F381E02D09949F
:1017600080E090E0089567E471E00C949D0B0F9386
:101770001F93CF93DF93EC010E949D0B8C01CE0150
:101780000E94B30B800F911FDF91CF911F910F919A
:1017900008950895AA1BBB1B51E107C0AA1FBB1FD8
:1017A000A617B70710F0A61BB70B881F991F5A95ED
:1017B000A9F780959095BC01CD010895A1E21A2E5C
:1017C000AA1BBB1BFD010DC0AA1FBB1FEE1FFF1FE5
:1017D000A217B307E407F50720F0A21BB30BE40B35
:1017E000F50B661F771F881F991F1A9469F760957C
:1017F0007095809590959B01AC01BD01CF01089536
:10180000EE0FFF1F0590F491E02D099481E090E028
:10181000F8940C94120CDC0101C06D9341505040BF
:08182000E0F70895F894FFCFF2
:1018280048656C6C6F210000000000F905750B9786
:1018380009710377048E042804A404D904F704006A
:10184800000000F905750B6206710377048E042801
:1018580004A404D904F70400000000090A750B99D0
:1018680009B209A409E7090D0A006E616E00696EE4
:0818780066006F7666002E0089
:00000001FF
